{
  "_format": "hh-sol-artifact-1",
  "contractName": "MyNFT",
  "sourceName": "contracts/MyNFT.sol",
  "abi": [
    {
      "inputs": [],
      "stateMutability": "nonpayable",
      "type": "constructor"
    },
    {
      "anonymous": false,
      "inputs": [
        {
          "indexed": true,
          "internalType": "address",
          "name": "owner",
          "type": "address"
        },
        {
          "indexed": true,
          "internalType": "address",
          "name": "approved",
          "type": "address"
        },
        {
          "indexed": true,
          "internalType": "uint256",
          "name": "tokenId",
          "type": "uint256"
        }
      ],
      "name": "Approval",
      "type": "event"
    },
    {
      "anonymous": false,
      "inputs": [
        {
          "indexed": true,
          "internalType": "address",
          "name": "owner",
          "type": "address"
        },
        {
          "indexed": true,
          "internalType": "address",
          "name": "operator",
          "type": "address"
        },
        {
          "indexed": false,
          "internalType": "bool",
          "name": "approved",
          "type": "bool"
        }
      ],
      "name": "ApprovalForAll",
      "type": "event"
    },
    {
      "anonymous": false,
      "inputs": [
        {
          "indexed": true,
          "internalType": "address",
          "name": "previousOwner",
          "type": "address"
        },
        {
          "indexed": true,
          "internalType": "address",
          "name": "newOwner",
          "type": "address"
        }
      ],
      "name": "OwnershipTransferred",
      "type": "event"
    },
    {
      "anonymous": false,
      "inputs": [
        {
          "indexed": true,
          "internalType": "address",
          "name": "from",
          "type": "address"
        },
        {
          "indexed": true,
          "internalType": "address",
          "name": "to",
          "type": "address"
        },
        {
          "indexed": true,
          "internalType": "uint256",
          "name": "tokenId",
          "type": "uint256"
        }
      ],
      "name": "Transfer",
      "type": "event"
    },
    {
      "inputs": [
        {
          "internalType": "address",
          "name": "to",
          "type": "address"
        },
        {
          "internalType": "uint256",
          "name": "tokenId",
          "type": "uint256"
        }
      ],
      "name": "approve",
      "outputs": [],
      "stateMutability": "nonpayable",
      "type": "function"
    },
    {
      "inputs": [
        {
          "internalType": "address",
          "name": "owner",
          "type": "address"
        }
      ],
      "name": "balanceOf",
      "outputs": [
        {
          "internalType": "uint256",
          "name": "",
          "type": "uint256"
        }
      ],
      "stateMutability": "view",
      "type": "function"
    },
    {
      "inputs": [
        {
          "internalType": "uint256",
          "name": "tokenId",
          "type": "uint256"
        }
      ],
      "name": "getApproved",
      "outputs": [
        {
          "internalType": "address",
          "name": "",
          "type": "address"
        }
      ],
      "stateMutability": "view",
      "type": "function"
    },
    {
      "inputs": [
        {
          "internalType": "address",
          "name": "owner",
          "type": "address"
        },
        {
          "internalType": "address",
          "name": "operator",
          "type": "address"
        }
      ],
      "name": "isApprovedForAll",
      "outputs": [
        {
          "internalType": "bool",
          "name": "",
          "type": "bool"
        }
      ],
      "stateMutability": "view",
      "type": "function"
    },
    {
      "inputs": [
        {
          "internalType": "address",
          "name": "recipient",
          "type": "address"
        },
        {
          "internalType": "string",
          "name": "tokenURI",
          "type": "string"
        }
      ],
      "name": "mintNFT",
      "outputs": [
        {
          "internalType": "uint256",
          "name": "",
          "type": "uint256"
        }
      ],
      "stateMutability": "nonpayable",
      "type": "function"
    },
    {
      "inputs": [],
      "name": "name",
      "outputs": [
        {
          "internalType": "string",
          "name": "",
          "type": "string"
        }
      ],
      "stateMutability": "view",
      "type": "function"
    },
    {
      "inputs": [],
      "name": "owner",
      "outputs": [
        {
          "internalType": "address",
          "name": "",
          "type": "address"
        }
      ],
      "stateMutability": "view",
      "type": "function"
    },
    {
      "inputs": [
        {
          "internalType": "uint256",
          "name": "tokenId",
          "type": "uint256"
        }
      ],
      "name": "ownerOf",
      "outputs": [
        {
          "internalType": "address",
          "name": "",
          "type": "address"
        }
      ],
      "stateMutability": "view",
      "type": "function"
    },
    {
      "inputs": [],
      "name": "renounceOwnership",
      "outputs": [],
      "stateMutability": "nonpayable",
      "type": "function"
    },
    {
      "inputs": [
        {
          "internalType": "address",
          "name": "from",
          "type": "address"
        },
        {
          "internalType": "address",
          "name": "to",
          "type": "address"
        },
        {
          "internalType": "uint256",
          "name": "tokenId",
          "type": "uint256"
        }
      ],
      "name": "safeTransferFrom",
      "outputs": [],
      "stateMutability": "nonpayable",
      "type": "function"
    },
    {
      "inputs": [
        {
          "internalType": "address",
          "name": "from",
          "type": "address"
        },
        {
          "internalType": "address",
          "name": "to",
          "type": "address"
        },
        {
          "internalType": "uint256",
          "name": "tokenId",
          "type": "uint256"
        },
        {
          "internalType": "bytes",
          "name": "data",
          "type": "bytes"
        }
      ],
      "name": "safeTransferFrom",
      "outputs": [],
      "stateMutability": "nonpayable",
      "type": "function"
    },
    {
      "inputs": [
        {
          "internalType": "address",
          "name": "operator",
          "type": "address"
        },
        {
          "internalType": "bool",
          "name": "approved",
          "type": "bool"
        }
      ],
      "name": "setApprovalForAll",
      "outputs": [],
      "stateMutability": "nonpayable",
      "type": "function"
    },
    {
      "inputs": [
        {
          "internalType": "bytes4",
          "name": "interfaceId",
          "type": "bytes4"
        }
      ],
      "name": "supportsInterface",
      "outputs": [
        {
          "internalType": "bool",
          "name": "",
          "type": "bool"
        }
      ],
      "stateMutability": "view",
      "type": "function"
    },
    {
      "inputs": [],
      "name": "symbol",
      "outputs": [
        {
          "internalType": "string",
          "name": "",
          "type": "string"
        }
      ],
      "stateMutability": "view",
      "type": "function"
    },
    {
      "inputs": [
        {
          "internalType": "uint256",
          "name": "tokenId",
          "type": "uint256"
        }
      ],
      "name": "tokenURI",
      "outputs": [
        {
          "internalType": "string",
          "name": "",
          "type": "string"
        }
      ],
      "stateMutability": "view",
      "type": "function"
    },
    {
      "inputs": [
        {
          "internalType": "address",
          "name": "from",
          "type": "address"
        },
        {
          "internalType": "address",
          "name": "to",
          "type": "address"
        },
        {
          "internalType": "uint256",
          "name": "tokenId",
          "type": "uint256"
        }
      ],
      "name": "transferFrom",
      "outputs": [],
      "stateMutability": "nonpayable",
      "type": "function"
    },
    {
      "inputs": [
        {
          "internalType": "address",
          "name": "newOwner",
          "type": "address"
        }
      ],
      "name": "transferOwnership",
      "outputs": [],
      "stateMutability": "nonpayable",
      "type": "function"
    }
  ],
  "bytecode": "0x60806040523480156200001157600080fd5b506040805180820182526005815264135e53919560da1b60208083019182528351808501909452600384526213919560ea1b9084015281519192916200005a91600091620000e9565b50805162000070906001906020840190620000e9565b5050506200008d620000876200009360201b60201c565b62000097565b620001cc565b3390565b600780546001600160a01b038381166001600160a01b0319831681179093556040519116919082907f8be0079c531659141344cd1fd0a4f28419497f9722a3daafe3b4186f6b6457e090600090a35050565b828054620000f7906200018f565b90600052602060002090601f0160209004810192826200011b576000855562000166565b82601f106200013657805160ff191683800117855562000166565b8280016001018555821562000166579182015b828111156200016657825182559160200191906001019062000149565b506200017492915062000178565b5090565b5b8082111562000174576000815560010162000179565b600281046001821680620001a457607f821691505b60208210811415620001c657634e487b7160e01b600052602260045260246000fd5b50919050565b61172980620001dc6000396000f3fe608060405234801561001057600080fd5b506004361061010b5760003560e01c8063715018a6116100a2578063b88d4fde11610071578063b88d4fde1461021b578063c87b56dd1461022e578063e985e9c514610241578063eacabe141461027d578063f2fde38b146102905761010b565b8063715018a6146101e75780638da5cb5b146101ef57806395d89b4114610200578063a22cb465146102085761010b565b806323b872dd116100de57806323b872dd1461018d57806342842e0e146101a05780636352211e146101b357806370a08231146101c65761010b565b806301ffc9a71461011057806306fdde0314610138578063081812fc1461014d578063095ea7b314610178575b600080fd5b61012361011e366004611427565b6102a3565b60405190151581526020015b60405180910390f35b6101406102f7565b60405161012f919061150f565b61016061015b36600461145f565b610389565b6040516001600160a01b03909116815260200161012f565b61018b6101863660046113fe565b6103b0565b005b61018b61019b3660046112b1565b6104cb565b61018b6101ae3660046112b1565b6104fc565b6101606101c136600461145f565b610517565b6101d96101d4366004611265565b610577565b60405190815260200161012f565b61018b6105fd565b6007546001600160a01b0316610160565b610140610611565b61018b610216366004611365565b610620565b61018b6102293660046112ec565b61062f565b61014061023c36600461145f565b610667565b61012361024f36600461127f565b6001600160a01b03918216600090815260056020908152604080832093909416825291909152205460ff1690565b6101d961028b36600461139f565b610779565b61018b61029e366004611265565b6107b9565b60006001600160e01b031982166380ac58cd60e01b14806102d457506001600160e01b03198216635b5e139f60e01b145b806102ef57506301ffc9a760e01b6001600160e01b03198316145b90505b919050565b60606000805461030690611631565b80601f016020809104026020016040519081016040528092919081815260200182805461033290611631565b801561037f5780601f106103545761010080835404028352916020019161037f565b820191906000526020600020905b81548152906001019060200180831161036257829003601f168201915b5050505050905090565b600061039482610832565b506000908152600460205260409020546001600160a01b031690565b60006103bb82610517565b9050806001600160a01b0316836001600160a01b0316141561042e5760405162461bcd60e51b815260206004820152602160248201527f4552433732313a20617070726f76616c20746f2063757272656e74206f776e656044820152603960f91b60648201526084015b60405180910390fd5b336001600160a01b038216148061044a575061044a813361024f565b6104bc5760405162461bcd60e51b815260206004820152603e60248201527f4552433732313a20617070726f76652063616c6c6572206973206e6f7420746f60448201527f6b656e206f776e6572206e6f7220617070726f76656420666f7220616c6c00006064820152608401610425565b6104c68383610891565b505050565b6104d533826108ff565b6104f15760405162461bcd60e51b815260040161042590611574565b6104c683838361097d565b6104c68383836040518060200160405280600081525061062f565b6000818152600260205260408120546001600160a01b0316806102ef5760405162461bcd60e51b8152602060048201526018602482015277115490cdcc8c4e881a5b9d985b1a59081d1bdad95b88125160421b6044820152606401610425565b60006001600160a01b0382166105e15760405162461bcd60e51b815260206004820152602960248201527f4552433732313a2061646472657373207a65726f206973206e6f7420612076616044820152683634b21037bbb732b960b91b6064820152608401610425565b506001600160a01b031660009081526003602052604090205490565b610605610b19565b61060f6000610b73565b565b60606001805461030690611631565b61062b338383610bc5565b5050565b61063933836108ff565b6106555760405162461bcd60e51b815260040161042590611574565b61066184848484610c94565b50505050565b606061067282610832565b6000828152600660205260408120805461068b90611631565b80601f01602080910402602001604051908101604052809291908181526020018280546106b790611631565b80156107045780601f106106d957610100808354040283529160200191610704565b820191906000526020600020905b8154815290600101906020018083116106e757829003601f168201915b50505050509050600061072260408051602081019091526000815290565b9050805160001415610736575090506102f2565b8151156107685780826040516020016107509291906114a3565b604051602081830303815290604052925050506102f2565b61077184610cc7565b949350505050565b6000610783610b19565b610791600880546001019055565b600061079c60085490565b90506107a88482610d3a565b6107b28184610e7d565b9392505050565b6107c1610b19565b6001600160a01b0381166108265760405162461bcd60e51b815260206004820152602660248201527f4f776e61626c653a206e6577206f776e657220697320746865207a65726f206160448201526564647265737360d01b6064820152608401610425565b61082f81610b73565b50565b6000818152600260205260409020546001600160a01b031661082f5760405162461bcd60e51b8152602060048201526018602482015277115490cdcc8c4e881a5b9d985b1a59081d1bdad95b88125160421b6044820152606401610425565b600081815260046020526040902080546001600160a01b0319166001600160a01b03841690811790915581906108c682610517565b6001600160a01b03167f8c5be1e5ebec7d5bd14f71427d1e84f3dd0314c0f7b2291e5b200ac8c7c3b92560405160405180910390a45050565b60008061090b83610517565b9050806001600160a01b0316846001600160a01b0316148061095257506001600160a01b0380821660009081526005602090815260408083209388168352929052205460ff165b806107715750836001600160a01b031661096b84610389565b6001600160a01b031614949350505050565b826001600160a01b031661099082610517565b6001600160a01b0316146109f45760405162461bcd60e51b815260206004820152602560248201527f4552433732313a207472616e736665722066726f6d20696e636f72726563742060448201526437bbb732b960d91b6064820152608401610425565b6001600160a01b038216610a565760405162461bcd60e51b8152602060048201526024808201527f4552433732313a207472616e7366657220746f20746865207a65726f206164646044820152637265737360e01b6064820152608401610425565b610a61600082610891565b6001600160a01b0383166000908152600360205260408120805460019290610a8a9084906115ee565b90915550506001600160a01b0382166000908152600360205260408120805460019290610ab89084906115c2565b909155505060008181526002602052604080822080546001600160a01b0319166001600160a01b0386811691821790925591518493918716917fddf252ad1be2c89b69c2b068fc378daa952ba7f163c4a11628f55a4df523b3ef91a46104c6565b6007546001600160a01b0316331461060f5760405162461bcd60e51b815260206004820181905260248201527f4f776e61626c653a2063616c6c6572206973206e6f7420746865206f776e65726044820152606401610425565b600780546001600160a01b038381166001600160a01b0319831681179093556040519116919082907f8be0079c531659141344cd1fd0a4f28419497f9722a3daafe3b4186f6b6457e090600090a35050565b816001600160a01b0316836001600160a01b03161415610c275760405162461bcd60e51b815260206004820152601960248201527f4552433732313a20617070726f766520746f2063616c6c6572000000000000006044820152606401610425565b6001600160a01b03838116600081815260056020908152604080832094871680845294825291829020805460ff191686151590811790915591519182527f17307eab39ab6107e8899845ad3d59bd9653f200f220920489ca2b5937696c31910160405180910390a3505050565b610c9f84848461097d565b610cab84848484610f17565b6106615760405162461bcd60e51b815260040161042590611522565b6060610cd282610832565b6000610ce960408051602081019091526000815290565b90506000815111610d0957604051806020016040528060008152506107b2565b80610d1384611024565b604051602001610d249291906114a3565b6040516020818303038152906040529392505050565b6001600160a01b038216610d905760405162461bcd60e51b815260206004820181905260248201527f4552433732313a206d696e7420746f20746865207a65726f20616464726573736044820152606401610425565b6000818152600260205260409020546001600160a01b031615610df55760405162461bcd60e51b815260206004820152601c60248201527f4552433732313a20746f6b656e20616c7265616479206d696e746564000000006044820152606401610425565b6001600160a01b0382166000908152600360205260408120805460019290610e1e9084906115c2565b909155505060008181526002602052604080822080546001600160a01b0319166001600160a01b03861690811790915590518392907fddf252ad1be2c89b69c2b068fc378daa952ba7f163c4a11628f55a4df523b3ef908290a461062b565b6000828152600260205260409020546001600160a01b0316610ef85760405162461bcd60e51b815260206004820152602e60248201527f45524337323155524953746f726167653a2055524920736574206f66206e6f6e60448201526d32bc34b9ba32b73a103a37b5b2b760911b6064820152608401610425565b600082815260066020908152604090912082516104c69284019061113f565b60006001600160a01b0384163b1561101957604051630a85bd0160e11b81526001600160a01b0385169063150b7a0290610f5b9033908990889088906004016114d2565b602060405180830381600087803b158015610f7557600080fd5b505af1925050508015610fa5575060408051601f3d908101601f19168201909252610fa291810190611443565b60015b610fff573d808015610fd3576040519150601f19603f3d011682016040523d82523d6000602084013e610fd8565b606091505b508051610ff75760405162461bcd60e51b815260040161042590611522565b805181602001fd5b6001600160e01b031916630a85bd0160e11b149050610771565b506001949350505050565b60608161104957506040805180820190915260018152600360fc1b60208201526102f2565b8160005b8115611073578061105d8161166c565b915061106c9050600a836115da565b915061104d565b60008167ffffffffffffffff81111561109c57634e487b7160e01b600052604160045260246000fd5b6040519080825280601f01601f1916602001820160405280156110c6576020820181803683370190505b5090505b8415610771576110db6001836115ee565b91506110e8600a86611687565b6110f39060306115c2565b60f81b81838151811061111657634e487b7160e01b600052603260045260246000fd5b60200101906001600160f81b031916908160001a905350611138600a866115da565b94506110ca565b82805461114b90611631565b90600052602060002090601f01602090048101928261116d57600085556111b3565b82601f1061118657805160ff19168380011785556111b3565b828001600101855582156111b3579182015b828111156111b3578251825591602001919060010190611198565b506111bf9291506111c3565b5090565b5b808211156111bf57600081556001016111c4565b600067ffffffffffffffff808411156111f3576111f36116c7565b604051601f8501601f19908116603f0116810190828211818310171561121b5761121b6116c7565b8160405280935085815286868601111561123457600080fd5b858560208301376000602087830101525050509392505050565b80356001600160a01b03811681146102f257600080fd5b600060208284031215611276578081fd5b6107b28261124e565b60008060408385031215611291578081fd5b61129a8361124e565b91506112a86020840161124e565b90509250929050565b6000806000606084860312156112c5578081fd5b6112ce8461124e565b92506112dc6020850161124e565b9150604084013590509250925092565b60008060008060808587031215611301578081fd5b61130a8561124e565b93506113186020860161124e565b925060408501359150606085013567ffffffffffffffff81111561133a578182fd5b8501601f8101871361134a578182fd5b611359878235602084016111d8565b91505092959194509250565b60008060408385031215611377578182fd5b6113808361124e565b915060208301358015158114611394578182fd5b809150509250929050565b600080604083850312156113b1578182fd5b6113ba8361124e565b9150602083013567ffffffffffffffff8111156113d5578182fd5b8301601f810185136113e5578182fd5b6113f4858235602084016111d8565b9150509250929050565b60008060408385031215611410578182fd5b6114198361124e565b946020939093013593505050565b600060208284031215611438578081fd5b81356107b2816116dd565b600060208284031215611454578081fd5b81516107b2816116dd565b600060208284031215611470578081fd5b5035919050565b6000815180845261148f816020860160208601611605565b601f01601f19169290920160200192915050565b600083516114b5818460208801611605565b8351908301906114c9818360208801611605565b01949350505050565b6001600160a01b038581168252841660208201526040810183905260806060820181905260009061150590830184611477565b9695505050505050565b6000602082526107b26020830184611477565b60208082526032908201527f4552433732313a207472616e7366657220746f206e6f6e20455243373231526560408201527131b2b4bb32b91034b6b83632b6b2b73a32b960711b606082015260800190565b6020808252602e908201527f4552433732313a2063616c6c6572206973206e6f7420746f6b656e206f776e6560408201526d1c881b9bdc88185c1c1c9bdd995960921b606082015260800190565b600082198211156115d5576115d561169b565b500190565b6000826115e9576115e96116b1565b500490565b6000828210156116005761160061169b565b500390565b60005b83811015611620578181015183820152602001611608565b838111156106615750506000910152565b60028104600182168061164557607f821691505b6020821081141561166657634e487b7160e01b600052602260045260246000fd5b50919050565b60006000198214156116805761168061169b565b5060010190565b600082611696576116966116b1565b500690565b634e487b7160e01b600052601160045260246000fd5b634e487b7160e01b600052601260045260246000fd5b634e487b7160e01b600052604160045260246000fd5b6001600160e01b03198116811461082f57600080fdfea2646970667358221220853638446b5d663bdef513bf66a6a7f5f58229623b0343c3bc4c896306cf87d064736f6c63430008020033",
  "linkReferences": {},
  "deployedLinkReferences": {}
}